:100000000C9489000C94DA010C94B3010C94A600B2
:100010000C94A6000C94A6000C94A6000C94A600C8
:100020000C94A6000C94A6000C94A6000C94A600B8
:100030000C94A6000C94A6000C94A6000C94A600A8
:100040000C9469010C94A6000C94A6000C94A600D4
:100050000C94A6000C94A6000C94A6000C94A60088
:100060000C94A6000C94A60008000000BE9224493F
:10007000123EABAAAA2ABECDCCCC4C3E00000080DA
:10008000BEABAAAAAA3E00000000BF000000803F4D
:100090000000000000084178D3BB4387D1133D190D
:1000A0000E3CC3BD4282AD2B3E68EC8276BED98F3A
:1000B000E1A93E4C80EFFFBE01C4FF7F3F0000007E
:1000C000000000000000240027002A0000000000BB
:1000D000250028002B000404040404040404020284
:1000E00002020202030303030303010204081020B7
:1000F00040800102040810200102040810200000C2
:1001000000080002010000030407000000000000D6
:10011000000011241FBECFEFD8E0DEBFCDBF11E03D
:10012000A0E0B1E0E2EBFBE002C005900D92A4304C
:10013000B107D9F721E0A4E0B1E001C01D92A431DC
:10014000B207E1F70E9401020C94D7050C9400005D
:10015000E4E0F1E09491E0EFF0E02491ECEDF0E0E8
:10016000E491EE2309F43CC0992339F1933091F0E6
:1001700038F49130A9F0923001F594B59F7D12C00A
:10018000973091F09830A1F09430B9F490918000BC
:100190009F7D03C0909180009F77909380000DC059
:1001A00094B59F7794BD09C09091B0009F7703C02C
:1001B0009091B0009F7D9093B000F0E0EE0FFF1F94
:1001C000E453FF4FA591B4919FB7F894811104C0F7
:1001D0008C912095282302C0EC912E2B2C939FBF4D
:1001E00008950895609107017091080180910901B7
:1001F00090910A010E9421049B01AC012352310914
:1002000041095109AEEDBFEF0E940C0329E130E036
:1002100040E050E00E94DF02DA01C9018396A11D8F
:10022000B11D9C0190930501809304018F319105CC
:1002300014F010920601AC01425051094C315105A5
:1002400018F441E040930601223031051CF422E00D
:10025000209306010895CF93DF930E94F2008091CE
:100260000601882379F1813051F520910401309104
:10027000050148EC429FC001439F900D112482303C
:10028000910538F0880F991F880F991F05970197DE
:10029000F1F781E00E94A800C3E2D0E0CE0101970F
:1002A000F1F780E00E94A80083E19CE90197F1F753
:1002B00081E00E94A8002197F1F780E003C082301E
:1002C00029F481E0DF91CF910C94A800DF91CF91C8
:1002D00008951F920F920FB60F9211242F933F9300
:1002E0008F939F93AF93BF938091100190911101D1
:1002F000A0911201B091130130910F0123E0230F5F
:100300002D3720F40196A11DB11D05C026E8230F4D
:100310000296A11DB11D20930F01809310019093AF
:100320001101A0931201B093130180910B019091E0
:100330000C01A0910D01B0910E010196A11DB11DFE
:1003400080930B0190930C01A0930D01B0930E01CB
:10035000BF91AF919F918F913F912F910F900FBEC1
:100360000F901F9018951F920F920FB60F921124A5
:100370002F933F934F935F936F937F938F939F93AD
:10038000AF93BF93EF93FF93E0910201F0910301CC
:100390000995FF91EF91BF91AF919F918F917F91BF
:1003A0006F915F914F913F912F910F900FBE0F90E2
:1003B0001F9018951F920F920FB60F9211242F9332
:1003C0003F934F935F936F937F938F939F93AF93DD
:1003D000BF93EF93FF93E0910001F0910101099524
:1003E000FF91EF91BF91AF919F918F917F916F910D
:1003F0005F914F913F912F910F900FBE0F901F90E3
:100400001895789484B5826084BD84B5816084BD7C
:1004100085B5826085BD85B5816085BD80916E00A2
:10042000816080936E0010928100809181008260D3
:100430008093810080918100816080938100809110
:1004400080008160809380008091B10084608093FF
:10045000B1008091B00081608093B00080917A00FB
:10046000846080937A0080917A00826080937A0021
:1004700080917A00816080937A0080917A00806810
:1004800080937A001092C100E0EFF0E02491ECED4F
:10049000F0E08491882399F090E0880F991FFC0187
:1004A000EE53FF4FA591B491FC01E453FF4F8591AA
:1004B00094918FB7F894EC91E22BEC938FBF8BE281
:1004C00091E09093030180930201809169008C6018
:1004D00080936900E99A11E4C0E0D0E00E94F20044
:1004E00010937C0080917A00806480937A008091E0
:1004F0007A0086FDFCCF609178008091790070E0F1
:10050000782B072E000C880B990B0E9459049B0135
:10051000AC0160E070EC8FE794E40E94AF0320E050
:1005200030E040E85FE30E94420320E030E44CE129
:1005300056E40E9435050E94ED046B017C012CE617
:100540003FEC48E554E30E943505A70196010E945F
:100550003505A70196010E9435054B015C0126ED8A
:1005600034E649E759E3C701B6010E9435052BEC93
:1005700038E444E85AE30E9443039B01AC01C501FF
:10058000B4010E9443039B01AC0160E070E080E88D
:100590009FE30E94AF0323E333E948E853E40E945A
:1005A00042036093070170930801809309019093BF
:1005B0000A01209709F492CF0E9400008FCF052EE8
:1005C00097FB1EF400940E94F60257FD07D00E948C
:1005D000110307FC03D04EF40C94F602509540959D
:1005E000309521953F4F4F4F5F4F089590958095DF
:1005F000709561957F4F8F4F9F4F08950E943303F1
:10060000A59F900DB49F900DA49F800D911D112466
:100610000895B7FF0C94FE020E94FE02821B930B0A
:100620000895A1E21A2EAA1BBB1BFD010DC0AA1F33
:10063000BB1FEE1FFF1FA217B307E407F50720F04B
:10064000A21BB30BE40BF50B661F771F881F991FC6
:100650001A9469F760957095809590959B01AC010F
:10066000BD01CF010895A29FB001B39FC001A39F18
:10067000700D811D1124911DB29F700D811D1124DB
:10068000911D08955058BB27AA270E945A030C9425
:10069000AB040E949D0438F00E94A40420F039F4B9
:1006A0009F3F19F426F40C949A040EF4E095E7FBAE
:1006B0000C949404E92F0E94BC0458F3BA17620703
:1006C00073078407950720F079F4A6F50C94DE04EF
:1006D0000EF4E0950B2EBA2FA02D0B01B90190015D
:1006E0000C01CA01A0011124FF27591B99F0593FA1
:1006F00050F4503E68F11A16F040A22F232F342FE9
:100700004427585FF3CF469537952795A795F04036
:100710005395C9F77EF41F16BA0B620B730B840B4B
:10072000BAF09150A1F0FF0FBB1F661F771F881F03
:10073000C2F70EC0BA0F621F731F841F48F487955B
:1007400077956795B795F7959E3F08F0B0CF93954D
:10075000880F08F09927EE0F9795879508950E94C6
:10076000C3030C94AB040E94A40458F00E949D049F
:1007700040F029F45F3F29F00C94940451110C943B
:10078000DF040C949A040E94BC0468F39923B1F32B
:10079000552391F3951B550BBB27AA2762177307A7
:1007A000840738F09F5F5F4F220F331F441FAA1F3B
:1007B000A9F335D00E2E3AF0E0E832D091505040F7
:1007C000E695001CCAF72BD0FE2F29D0660F771FA5
:1007D000881FBB1F261737074807AB07B0E809F08B
:1007E000BB0B802DBF01FF2793585F4F3AF09E3F10
:1007F000510578F00C9494040C94DF045F3FE4F30B
:10080000983ED4F3869577956795B795F7959F5F52
:10081000C9F7880F911D9695879597F90895E1E09E
:10082000660F771F881FBB1F621773078407BA07FD
:1008300020F0621B730B840BBA0BEE1F88F7E09558
:1008400008950E9428046894B1110C94DF0408955F
:100850000E94C40488F09F5798F0B92F9927B75188
:10086000B0F0E1F0660F771F881F991F1AF0BA9554
:10087000C9F714C0B13091F00E94DE04B1E00895D0
:100880000C94DE04672F782F8827B85F39F0B93FC2
:10089000CCF3869577956795B395D9F73EF4909507
:1008A0008095709561957F4F8F4F9F4F0895E89485
:1008B00009C097FB3EF490958095709561957F4FA8
:1008C0008F4F9F4F9923A9F0F92F96E9BB27939556
:1008D000F695879577956795B795F111F8CFFAF466
:1008E000BB0F11F460FF1BC06F5F7F4F8F4F9F4F97
:1008F00016C0882311F096E911C0772321F09EE8F5
:10090000872F762F05C0662371F096E8862F70E05A
:1009100060E02AF09A95660F771F881FDAF7880F34
:100920009695879597F9089597F99F6780E870E005
:1009300060E008959FEF80EC089500240A94161655
:10094000170618060906089500240A9412161306BD
:10095000140605060895092E0394000C11F488234B
:1009600052F0BB0F40F4BF2B11F460FF04C06F5F67
:100970007F4F8F4F9F4F089557FD9058440F551F3D
:1009800059F05F3F71F04795880F97FB991F61F011
:100990009F3F79F087950895121613061406551F88
:1009A000F2CF4695F1DF08C0161617061806991FF4
:1009B000F1CF86957105610508940895E894BB27E9
:1009C00066277727CB0197F9089516F00C94A205B6
:1009D0000C949A0468940C9494040E94C404A8F3A0
:1009E0009923C1F3AEF3DF93CF931F930F93FF923D
:1009F000C92FDD2788232AF02197660F771F881FCC
:100A0000DAF720E030E040E85FEB9FE3883920F040
:100A1000803E38F021968F770E944303E8E6F0E0AD
:100A200004C00E944303E5E9F0E00E94B0058B0199
:100A3000BE01EC01FB2E6F5771097595771F880B6E
:100A4000990B0E94590428E132E741E35FE30E94D9
:100A50004805AF2D9801AE01FF900F911F91CF91E6
:100A6000DF910E945A030C94AB040E9448050C9439
:100A7000AB040E949D0438F00E94A40420F095234A
:100A800011F00C9494040C949A0411240C94DF0437
:100A90000E94BC0470F3959FC1F3950F50E0551F61
:100AA000629FF001729FBB27F00DB11D639FAA27C3
:100AB000F00DB11DAA1F649F6627B00DA11D661F12
:100AC000829F2227B00DA11D621F739FB00DA11D33
:100AD000621F839FA00D611D221F749F3327A00DED
:100AE000611D231F849F600D211D822F762F6A2F89
:100AF00011249F5750409AF0F1F088234AF0EE0FEE
:100B0000FF1FBB1F661F771F881F91505040A9F71A
:100B10009E3F510580F00C9494040C94DF045F3FD9
:100B2000E4F3983ED4F3869577956795B795F79556
:100B3000E7959F5FC1F7FE2B880F911D96958795CE
:100B400097F908959F3F31F0915020F4879577955C
:100B50006795B795880F911D9695879597F9089594
:100B6000DF93CF931F930F93FF92EF92DF927B015E
:100B70008C01689406C0DA2EEF010E944805FE0140
:100B8000E894A5912591359145915591A6F3EF01F2
:100B90000E945A03FE019701A801DA9469F7DF90D9
:100BA000EF90FF900F911F91CF91DF910895F894EE
:020BB000FFCF75
:040BB200F100F1005D
:00000001FF
