:100000000C945C000C94A7010C9480010C94790072
:100010000C9479000C9479000C9479000C9479007C
:100020000C9479000C9479000C9479000C9479006C
:100030000C9479000C9479000C9479000C9479005C
:100040000C9436010C9479000C9479000C9479008E
:100050000C9479000C9479000C9479000C9479003C
:100060000C9479000C947900000000002400270013
:100070002A0000000000250028002B0004040404CE
:100080000404040402020202020203030303030342
:10009000010204081020408001020408102001021F
:1000A00004081020000000080002010000030407FB
:1000B000000000000000000011241FBECFEFD8E0B8
:1000C000DEBFCDBF11E0A0E0B1E0E4E3F5E002C0A7
:1000D00005900D92A430B107D9F721E0A4E0B1E07A
:1000E00001C01D92AF30B207E1F70E94CE010C941F
:1000F00098020C940000EAEAF0E09491E6E9F0E05E
:100100002491E2E8F0E0E491EE2309F43CC0992365
:1001100039F1933091F038F49130A9F0923001F533
:1001200094B59F7D12C0973091F09830A1F0943033
:10013000B9F4909180009F7D03C0909180009F77DB
:10014000909380000DC094B59F7794BD09C09091A5
:10015000B0009F7703C09091B0009F7D9093B00056
:10016000F0E0EE0FFF1FEE58FF4FA591B4919FB73F
:10017000F894811104C08C912095282302C0EC9141
:100180002E2B2C939FBF0895089580E480937C00CC
:1001900080917A00806480937A0080917A0086FD55
:1001A000FCCFA091780080917900B0E0B82B22E2DA
:1001B00030E00E9491022FEF33E040E050E00E94D7
:1001C0004102BA01A9014F5F5F4F6F4F7F4F842FEC
:1001D000409304014F3110F0109205019EEF940FEF
:1001E0009C3110F481E003C0823018F482E08093E7
:1001F0000501842F90E00895CF93DF930E94C500FE
:1002000080910501882359F1813031F580910401F5
:1002100028EC829FC0011124823091053CF0880FA8
:10022000991F880F991F05970197F1F781E00E94A8
:100230007B00C3E7D0E0CE010197F1F780E00E9498
:100240007B0083EC9BE90197F1F781E00E947B0042
:100250002197F1F780E003C0823029F481E0DF913B
:10026000CF910C947B00DF91CF9108951F920F9254
:100270000FB60F9211242F933F938F939F93AF93B9
:10028000BF9380910B0190910C01A0910D01B09151
:100290000E0130910A0123E0230F2D3720F401963F
:1002A000A11DB11D05C026E8230F0296A11DB11D99
:1002B00020930A0180930B0190930C01A0930D01F0
:1002C000B0930E018091060190910701A091080161
:1002D000B09109010196A11DB11D80930601909373
:1002E0000701A0930801B0930901BF91AF919F91BD
:1002F0008F913F912F910F900FBE0F901F901895E7
:100300001F920F920FB60F9211242F933F934F938A
:100310005F936F937F938F939F93AF93BF93EF936D
:10032000FF93E0910201F09103010995FF91EF9194
:10033000BF91AF919F918F917F916F915F914F91FD
:100340003F912F910F900FBE0F901F9018951F9205
:100350000F920FB60F9211242F933F934F935F93F9
:100360006F937F938F939F93AF93BF93EF93FF937D
:10037000E0910001F09101010995FF91EF91BF918A
:10038000AF919F918F917F916F915F914F913F912D
:100390002F910F900FBE0F901F901895789484B5F1
:1003A000826084BD84B5816084BD85B5826085BD71
:1003B00085B5816085BD80916E00816080936E00FF
:1003C00010928100809181008260809381008091F1
:1003D00081008160809381008091800081608093A2
:1003E00080008091B10084608093B1008091B00062
:1003F00081608093B00080917A00846080937A005D
:1004000080917A00826080937A0080917A00816086
:1004100080937A0080917A00806880937A001092AD
:10042000C100E6E9F0E02491E2E8F0E0849188235D
:1004300099F090E0880F991FFC01E859FF4FA591B2
:10044000B491FC01EE58FF4F859194918FB7F894C9
:10045000EC91E22BEC938FBF8CEF90E09093030133
:1004600080930201809169008C6080936900E99A11
:10047000C0E0D0E00E94C5002097E1F30E94000098
:10048000F9CF052E97FB1EF400940E94580257FDE9
:1004900007D00E94600207FC03D04EF40C9458026F
:1004A00050954095309521953F4F4F4F5F4F0895A0
:1004B00090958095709561957F4F8F4F9F4F0895D0
:1004C000A1E21A2EAA1BBB1BFD010DC0AA1FBB1F58
:1004D000EE1FFF1FA217B307E407F50720F0A21BCA
:1004E000B30BE40BF50B661F771F881F991F1A9437
:1004F00069F760957095809590959B01AC01BD0161
:10050000CF010895A29FB001B39FC001A39F700DBA
:10051000811D1124911DB29F700D811D1124911D0B
:1005200008950E948202B7FF0895821B930B0895DD
:04053000F894FFCF6D
:04053400C400C4003B
:00000001FF
