:100000000C948A000C9402030C94DB020C94B20052
:100010000C94B2000C94B2000C94B2000C94B20098
:100020000C94B2000C94B2000C94B2000C94B20088
:100030000C94B2000C94B2000C94B2000C94B20078
:100040000C9491020C94B2000C944F030C9429036D
:100050000C94B2000C94B2000C94B2000C94B20058
:100060000C94B2000C94B20008000000BE92244927
:10007000123EABAAAA2ABECDCCCC4C3E00000080DA
:10008000BEABAAAAAA3E00000000BF000000803F4D
:100090000000000000084178D3BB4387D1133D190D
:1000A0000E3CC3BD4282AD2B3E68EC8276BED98F3A
:1000B000E1A93E4C80EFFFBE01C4FF7F3F0000007E
:1000C000000000000000240027002A0000000000BB
:1000D000250028002B000404040404040404020284
:1000E00002020202030303030303010204081020B7
:1000F00040800102040810200102040810200000C2
:1001000000080002010000030407000000000000D6
:100110000000680511241FBECFEFD8E0DEBFCDBFC1
:1001200011E0A0E0B1E0EAE9F1E102C005900D9232
:10013000A632B107D9F721E0A6E2B1E001C01D92D5
:10014000A23DB207E1F710E0CAE8D0E004C0219771
:10015000FE010E94F805C938D107C9F70E94810342
:100160000C94CB080C940000E4E0F1E09491E0EFF3
:10017000F0E02491ECEDF0E0E491EE2309F43CC0D2
:10018000992339F1933091F038F49130A9F09230FD
:1001900001F594B59F7D12C0973091F09830A1F091
:1001A0009430B9F4909180009F7D03C090918000BD
:1001B0009F77909380000DC094B59F7794BD09C040
:1001C0009091B0009F7703C09091B0009F7D909375
:1001D000B000F0E0EE0FFF1FE453FF4FA591B49184
:1001E0009FB7F894811104C08C912095282302C0F8
:1001F000EC912E2B2C939FBF08950895CF92DF9200
:10020000EF92FF920F931F93CF93DF936C017A01CC
:100210008B01C0E0D0E0CE15DF0581F0D8016D91F3
:100220008D01D601ED91FC910190F081E02DC60188
:100230000995892B11F02196EECF7E01C701DF9140
:10024000CF911F910F91FF90EF90DF90CF90089585
:10025000089580E090E00895FC01538D448D252F92
:1002600030E0842F90E0821B930B541710F0CF9650
:10027000089501970895FC01918D828D981761F082
:10028000828DDF01A80FB11D5D968C91928D9F5FCD
:100290009F73928F90E008958FEF9FEF0895FC0178
:1002A000918D828D981731F0828DE80FF11D858D2B
:1002B00090E008958FEF9FEF0895FC01918D228DBE
:1002C000892F90E0805C9F4F821B91098F73992743
:1002D000089585E391E00E945D0121E0892B09F4F6
:1002E00020E0822F0895FC01848DDF01A80FB11D4D
:1002F000A35ABF4F2C91848D90E001968F7399275C
:10030000848FA689B7892C93A089B1898C91837039
:1003100080648C93938D848D981306C00288F38932
:10032000E02D80818F7D80830895EF92FF920F935F
:100330001F93CF93DF93EC0181E0888F9B8D8C8D91
:10034000981305C0E889F989808185FD26C0F62EBD
:100350000B8D10E00F5F1F4F0F731127E02E8C8D58
:10036000E8120CC00FB607FCFACFE889F989808142
:1003700085FFF5CFCE010E947301F1CF8B8DFE0179
:10038000E80FF11DE35AFF4FF0829FB7F8940B8FEF
:10039000EA89FB89808180620AC09FB7F894EE8960
:1003A000FF896083E889F989808183708064808314
:1003B0009FBF81E090E0DF91CF911F910F91FF905F
:1003C000EF900895CF93DF93EC01888D8823C9F0D7
:1003D000EA89FB89808185FD05C0A889B9898C914E
:1003E00086FD0FC00FB607FCF5CF808185FFF2CFE9
:1003F000A889B9898C9185FFEDCFCE010E94730148
:10040000E7CFDF91CF91089580E090E0892B29F02C
:100410000E94690181110C940000089560912801E7
:100420007091290180912A0190912B010E94E2068E
:100430009B01AC012352310941095109AEEDBFEFD7
:100440000E94C2052FE030E040E050E00E94950598
:10045000BA01A9014D5D5F4F6F4F7F4F842F4093CD
:1004600026014F3110F0109227019EEF940F9C311E
:1004700010F481E003C0823018F482E080932701F9
:10048000842F90E00895CF93DF930E940E02809115
:100490002701882359F1813031F58091260128EC1C
:1004A000829FC0011124823091053CF0880F991F72
:1004B000880F991F05970197F1F781E00E94B4001A
:1004C000C3E2D0E0CE010197F1F780E00E94B400D2
:1004D00083E19CE90197F1F781E00E94B400219744
:1004E000F1F780E003C0823029F481E0DF91CF9101
:1004F0000C94B400DF91CF910895009769F0FC014E
:1005000001900020E9F73197AF01481B590BBC015E
:1005100085E391E00C94FE0080E090E008950E9455
:10052000C6081F920F920FB60F9211242F933F937C
:100530008F939F93AF93BF9380913101909132013C
:10054000A0913301B09134013091300123E0230FA9
:100550002D3720F40196A11DB11D05C026E8230FFB
:100560000296A11DB11D209330018093310190931B
:100570003201A0933301B093340180912C0190910A
:100580002D01A0912E01B0912F010196A11DB11D49
:1005900080932C0190932D01A0932E01B0932F01F5
:1005A000BF91AF919F918F913F912F910F900FBE6F
:1005B0000F901F9018951F920F920FB60F92112453
:1005C0002F933F934F935F936F937F938F939F935B
:1005D000AF93BF93EF93FF93E0910201F09103017A
:1005E0000995FF91EF91BF91AF919F918F917F916D
:1005F0006F915F914F913F912F910F900FBE0F9090
:100600001F9018951F920F920FB60F9211242F93DF
:100610003F934F935F936F937F938F939F93AF938A
:10062000BF93EF93FF93E0910001F09101010995D1
:10063000FF91EF91BF91AF919F918F917F916F91BA
:100640005F914F913F912F910F900FBE0F901F9090
:1006500018951F920F920FB60F9211242F933F936C
:100660004F935F936F937F938F939F93AF93BF93BA
:10067000EF93FF9385E391E00E947301FF91EF9167
:10068000BF91AF919F918F917F916F915F914F91AA
:100690003F912F910F900FBE0F901F9018951F92B2
:1006A0000F920FB60F9211242F938F939F93EF9376
:1006B000FF93E0914501F09146018081E0914B016B
:1006C000F0914C0182FD12C0908180914E018F5FAC
:1006D0008F7320914F01821751F0E0914E01F0E0AD
:1006E000EB5CFE4F958F80934E0101C08081FF919E
:1006F000EF919F918F912F910F900FBE0F901F90B0
:100700001895CF93DF93CDB7DEB7A1970FB6F894C6
:10071000DEBF0FBECDBF789484B5826084BD84B542
:10072000816084BD85B5826085BD85B5816085BDEC
:1007300080916E00816080936E00109281008091A4
:10074000810082608093810080918100816080932C
:100750008100809180008160809380008091B10051
:1007600084608093B1008091B00081608093B0007C
:1007700080917A00846080937A0080917A00826010
:1007800080937A0080917A00816080937A008091D2
:100790007A00806880937A001092C100E091450150
:1007A000F091460182E08083E0914101F0914201A5
:1007B0001082E0914301F091440180E18083109226
:1007C0004D01E0914901F0914A0186E08083E0917A
:1007D0004701F0914801808180618083E091470169
:1007E000F0914801808188608083E0914701F09119
:1007F0004801808180688083E0914701F091480141
:1008000080818F7D8083E0EFF0E02491ECEDF0E0DB
:100810008491882399F090E0880F991FFC01EE5392
:10082000FF4FA591B491FC01E453FF4F8591949142
:100830008FB7F894EC91E22BEC938FBF83E492E0B6
:100840009093030180930201809169008C608093F2
:100850006900E99A81E4382E0E940E0230927C00F1
:1008600080917A00806480937A0080917A0086FD7E
:10087000FCCF609178008091790070E0782B072E92
:10088000000C880B990B0E941A079B01AC0160E0D9
:1008900070EC8FE794E40E94700620E030E040E8BE
:1008A0005FE30E94FE0520E030E44CE156E40E9444
:1008B0001F080E94D7076B017C012CE63FEC48E53E
:1008C00054E30E941F08A70196010E941F08A70178
:1008D00096010E941F084B015C0126ED34E649E7B2
:1008E00059E3C701B6010E941F082BEC38E444E825
:1008F0005AE30E94FF059B01AC01C501B4010E94AF
:10090000FF059B01AC0160E070E080E89FE30E947E
:10091000700623E333E948E853E40E94FE056B01C7
:100920007C014B015C016093280170932901809345
:100930002A0190932B019B01AC010E948C08882313
:1009400019F086E191E01AC026013701E89477F8A2
:100950002FEF3FEF4FE75FE7C301B2010E948C0822
:1009600081110FC02FEF3FEF4FE75FE7C301B201E7
:100970000E946B0618162CF48AE191E00E947D0219
:10098000A0C02FEF3FEF4FE75FE4C701B6010E9421
:10099000CA0718161CF48EE191E0F0CF2FEF3FEF5D
:1009A0004FE75FECC701B6010E946B0687FDF3CFEE
:1009B00020E030E0A901C701B6010E946B0687FF65
:1009C0000BC06DE285E391E00E949501460157015D
:1009D000B7FAB094B7F8B0942AE037ED43EA5BE396
:1009E000C501B4010E94FF056B017C010E94E9066C
:1009F0004B015C010E9418079B01AC01C701B601C5
:100A00000E94FE052B013C0119A27E0181E2E80E45
:100A1000F11C0E2DDF2CC501B4012AE030E040E0CE
:100A200050E00E94C70549015A01605DF7016293D9
:100A30007F01232B242B252B71F7CF010E947D02F0
:100A40006EE285E391E00E94950113E01150C9F137
:100A500020E030E040E251E4C301B2010E941F08EF
:100A60004B015C010E94E9069B0140E050E019A2A5
:100A7000E02EFD2C562E632E742EC52ECA01B90110
:100A80002AE030E040E050E00E94C705605DF701D9
:100A900062937F01211531054105510579F7CF0199
:100AA0000E947D02652D762D872D9C2D0E941807B2
:100AB0009B01AC01C501B4010E94FE052B013C0164
:100AC000C5CF82E291E00E947D020E940402C4CE62
:100AD000E5E3F1E01382128288EE93E0A0E0B0E05B
:100AE00084839583A683B78388E091E09183808394
:100AF00085EC90E09587848784EC90E097878687E3
:100B000080EC90E0918B808B81EC90E0938B828BDA
:100B100082EC90E0958B848B86EC90E0978B868BB3
:100B2000118E128E138E148E0895052E97FB1EF4CF
:100B300000940E94AC0557FD07D00E94C70507FC32
:100B400003D04EF40C94AC0550954095309521950A
:100B50003F4F4F4F5F4F08959095809570956195E9
:100B60007F4F8F4F9F4F08950E94E905A59F900DDD
:100B7000B49F900DA49F800D911D11240895B7FF7F
:100B80000C94B4050E94B405821B930B0895A1E256
:100B90001A2EAA1BBB1BFD010DC0AA1FBB1FEE1FF7
:100BA000FF1FA217B307E407F50720F0A21BB30B42
:100BB000E40BF50B661F771F881F991F1A9469F7BE
:100BC00060957095809590959B01AC01BD01CF011A
:100BD0000895A29FB001B39FC001A39F700D811D16
:100BE0001124911DB29F700D811D1124911D089536
:100BF000EE0FFF1F0590F491E02D09945058BB278C
:100C0000AA270E9416060C9490070E94820738F0CB
:100C10000E94890720F039F49F3F19F426F40C94C0
:100C20007F070EF4E095E7FB0C947907E92F0E940B
:100C3000A10758F3BA17620773078407950720F0D6
:100C400079F4A6F50C94C3070EF4E0950B2EBA2F99
:100C5000A02D0B01B90190010C01CA01A0011124C2
:100C6000FF27591B99F0593F50F4503E68F11A166E
:100C7000F040A22F232F342F4427585FF3CF4695FF
:100C800037952795A795F0405395C9F77EF41F1621
:100C9000BA0B620B730B840BBAF09150A1F0FF0FEB
:100CA000BB1F661F771F881FC2F70EC0BA0F621FD7
:100CB000731F841F48F4879577956795B795F795C7
:100CC0009E3F08F0B0CF9395880F08F09927EE0F5C
:100CD0009795879508950E94550708F481E0089537
:100CE0000E9484060C9490070E94890758F00E9485
:100CF000820740F029F45F3F29F00C9479075111E5
:100D00000C94C4070C947F070E94A10768F39923F1
:100D1000B1F3552391F3951B550BBB27AA276217F7
:100D20007307840738F09F5F5F4F220F331F441F04
:100D3000AA1FA9F335D00E2E3AF0E0E832D0915038
:100D40005040E695001CCAF72BD0FE2F29D0660F25
:100D5000771F881FBB1F261737074807AB07B0E868
:100D600009F0BB0B802DBF01FF2793585F4F3AF06E
:100D70009E3F510578F00C9479070C94C4075F3FAF
:100D8000E4F3983ED4F3869577956795B795F795F4
:100D90009F5FC9F7880F911D9695879597F90895DC
:100DA000E1E0660F771F881FBB1F62177307840778
:100DB000BA0720F0621B730B840BBA0BEE1F88F787
:100DC000E09508950E94E9066894B1110C94C40757
:100DD00008950E94A90788F09F5798F0B92F992786
:100DE000B751B0F0E1F0660F771F881F991F1AF016
:100DF000BA95C9F714C0B13091F00E94C307B1E0B1
:100E000008950C94C307672F782F8827B85F39F0AF
:100E1000B93FCCF3869577956795B395D9F73EF4AE
:100E200090958095709561957F4F8F4F9F4F089556
:100E3000E89409C097FB3EF4909580957095619574
:100E40007F4F8F4F9F4F9923A9F0F92F96E9BB272A
:100E50009395F695879577956795B795F111F8CFA6
:100E6000FAF4BB0F11F460FF1BC06F5F7F4F8F4F11
:100E70009F4F16C0882311F096E911C0772321F007
:100E80009EE8872F762F05C0662371F096E8862F9F
:100E900070E060E02AF09A95660F771F881FDAF7F6
:100EA000880F9695879597F90895990F0008550F23
:100EB000AA0BE0E8FEEF16161706E807F907C0F0E0
:100EC00012161306E407F50798F0621B730B840BE8
:100ED000950B39F40A2661F0232B242B252B21F4C2
:100EE00008950A2609F4A140A6958FEF811D811D62
:100EF000089597F99F6780E870E060E008959FEF9C
:100F000080EC089500240A941616170618060906A0
:100F1000089500240A94121613061406050608956F
:100F2000092E0394000C11F4882352F0BB0F40F4F7
:100F3000BF2B11F460FF04C06F5F7F4F8F4F9F4F37
:100F4000089557FD9058440F551F59F05F3F71F0B9
:100F50004795880F97FB991F61F09F3F79F0879520
:100F60000895121613061406551FF2CF4695F1DFA9
:100F700008C0161617061806991FF1CF8695710539
:100F8000610508940895E894BB2766277727CB016D
:100F900097F908950E94550708F48FEF089516F009
:100FA0000C9491080C947F0768940C9479070E9424
:100FB000A907A8F39923C1F3AEF3DF93CF931F934F
:100FC0000F93FF92C92FDD2788232AF02197660F00
:100FD000771F881FDAF720E030E040E85FEB9FE3FF
:100FE000883920F0803E38F021968F770E94FF05E7
:100FF000E8E6F0E004C00E94FF05E5E9F0E00E94A9
:101000009F088B01BE01EC01FB2E6F57710975958E
:10101000771F880B990B0E941A0728E132E741E3FA
:101020005FE30E943208AF2D9801AE01FF900F914F
:101030001F91CF91DF910E9416060C9490070E9499
:1010400032080C9490070E94820738F00E948907AA
:1010500020F0952311F00C9479070C947F0711244C
:101060000C94C4070E94A10770F3959FC1F3950FDC
:1010700050E0551F629FF001729FBB27F00DB11D1C
:10108000639FAA27F00DB11DAA1F649F6627B00DAC
:10109000A11D661F829F2227B00DA11D621F739F95
:1010A000B00DA11D621F839FA00D611D221F749FA3
:1010B0003327A00D611D231F849F600D211D822FEA
:1010C000762F6A2F11249F5750409AF0F1F0882311
:1010D0004AF0EE0FFF1FBB1F661F771F881F91503E
:1010E0005040A9F79E3F510580F00C9479070C946D
:1010F000C4075F3FE4F3983ED4F3869577956795F0
:10110000B795F795E7959F5FC1F7FE2B880F911D67
:101110009695879597F908950E945507880B990B26
:1011200008959F3F31F0915020F48795779567950A
:10113000B795880F911D9695879597F90895DF9338
:10114000CF931F930F93FF92EF92DF927B018C015D
:10115000689406C0DA2EEF010E943208FE01E8947E
:10116000A5912591359145915591A6F3EF010E94E6
:101170001606FE019701A801DA9469F7DF90EF9057
:10118000FF900F911F91CF91DF91089581E090E042
:0A119000F8940C94CB08F894FFCFFC
:10119A00FD00FD00000000009501FE002C01E201A7
:1011AA005D013B014F016E616E00696E66006F76EC
:0611BA0066000D0A0000B2
:00000001FF
